S00E000050325F5752522E737265633A
S11300007AC000008AC0000088C0000086C00000DA
S113001084C0000082C0000080C000007EC00000D8
S11300207CC000007AC0000078C0000076C00000E8
S113003074C0000072C0000070C000006EC00000F8
S11300406CC000006AC0000068C0000066C0000008
S113005064C0000062C0000060C000005EC0000018
S11300605CC000005AC0000058C0000056C0000028
S113007054C0000052C0000050C000004EC0000038
S11300802FC700004AC0000048C0000046C000005E
S113009044C0000042C0000040C000003EC0000058
S11300A03CC000003AC0000038C0000036C0000068
S11300B034C0000032C0000030C000002EC0000078
S11300C02CC000002AC0000028C0000026C0000088
S11300D024C0000022C0000020C000001EC0000098
S11300E01CC000007D0555057D058B05810599051E
S11300F09F05AC05B90511241FBECFEFD1E2DEBFC9
S1130100CDBF00E00CBF27E1A0E0B2E001C01D922A
S1130110AA3BB207E1F735D778C772CF0F921F9287
S11301202F923F924F925F926F927F928F929F9203
S1130130AF92BF92CF92DF92EF92FF920F931F93F1
S11301402F933F934F935F936F937F938F939F93DB
S1130150AF93BF93CF93DF93EF93FF93FCB7FF93DA
S11301600FB70F93EDB7FEB7E093B817F093B91735
S1130170E091B617F091B717EDBFFEBF0F910FBF17
S1130180FF91FCBFFF91EF91DF91CF91BF91AF91B0
S11301909F918F917F916F915F914F913F912F919B
S11301A01F910F91FF90EF90DF90CF90BF90AF9091
S11301B09F908F907F906F905F904F903F902F9083
S11301C01F900F9018950F921F922F923F924F926B
S11301D05F926F927F928F929F92AF92BF92CF92D3
S11301E0DF92EF92FF920F931F932F933F934F93BE
S11301F05F936F937F938F939F93AF93BF93CF93AB
S1130200DF93EF93FF93FCB7FF930FB70F93EDB713
S1130210FEB7E093B617F093B717E091B817F091D3
S1130220B917EDBFFEBF0F910FBFFF91FCBFFF9148
S1130230EF91DF91CF91BF91AF919F918F917F917A
S11302406F915F914F913F912F911F910F91FF906B
S1130250EF90DF90CF90BF90AF909F908F907F9062
S11302606F905F904F903F902F901F900F90089544
S1130270F8949FEF91B992B112B842B121E030E005
S1130280B90102C0660F771F8A95E2F7CB01842B70
S113029082B90000000082B112B878940895FFCFAB
S11302A08091B6049091B704892B69F0F894E09199
S11302B0BA04F091BB04E65FFE4F83E0808380E1E3
S11302C080930B0180CF0895FC0180A191A14097F8
S11302D019F48CE088B9FFCFA4A1B5A1AA0FBB1F64
S11302E0AE0FBF1F11967C936E9380A191A10196CE
S11302F091A380A324A135A12F5F3F4F2F703078A5
S1130300332334F421503109206F3F6F2F5F3F4F67
S113031035A324A30895FC0180A191A1892B19F48C
S11303208DE088B9FFCFA2A1B3A1AA0FBB1FAE0F66
S1130330BF1F8D919C9120A131A12150310931A37E
S113034020A322A133A12F5F3F4F2F703078332396
S113035034F421503109206F3F6F2F5F3F4F33A397
S113036022A3089580910405909105051816190695
S11303709CF484EE94E0CFDF9093BB048093BA04A2
S1130380FC01258136813093B7172093B617E95FB6
S1130390FE4F22E02083089580912A0590912B0539
S11303A0181619069CF48AE095E0B5DF9093BB0417
S11303B08093BA04FC01258136813093B7172093CA
S11303C0B617E95FFE4F22E020830895809150051F
S11303D090915105181619069CF480E395E09BDF73
S11303E09093BB048093BA04FC0125813681309339
S11303F0B7172093B617E95FFE4F22E020830895D4
S11304008091DE049091DF04181619069CF48EEB9B
S113041094E081DF9093BB048093BA04FC012581AE
S113042036813093B7172093B617E95FFE4F22E069
S11304302083089588E188B9FFCFCF93DF93EC013F
S11304408A81813079F0D8F0823039F08330E1F458
S1130450BE018EEB94E038DF1AC0BE0180E395E064
S113046033DF15C0BE018AE095E02EDF80912A05B6
S113047090912B0502975CF085E088B9FFCFBE010F
S113048084EE94E021DF03C08CE788B9FFCFC95F15
S1130490DE4F81E08883DF91CF9108958F929F9200
S11304A0AF92BF92CF92DF92EF92FF920F93CF93CE
S11304B0DF93EC01FC013796812C99249394DF019E
S11304C0C4011D920197E9F7E150FF4F80E591E0E7
S11304D0808331979083319710823197608331976D
S11304E0708331971082DE01A252BF4FB297808190
S11304F080688083BE83AD83B996718360833296AE
S113050010829D9611965C934E93398328830A83B7
S113051010823996F182E0823296D182C08232967C
S1130520B182A0823296B182A08232961182108268
S1130530013021F484E07497808302C0CE017DDF12
S113054088819981DF91CF910F91FF90EF90DF9097
S1130550CF90BF90AF909F908F900895AF92BF922D
S1130560CF92DF92EF92FF920F931F93CF93DF937B
S1130570EC018091B4049091B504409799F1809175
S11305805D06882371F0A3E8B7E0E1E0F0E09C9118
S1130590992349F03196AA5DBE4FE031F105B9F7D0
S11305A002C0E0E0F0E0570168017901042FAB01DB
S11305B0BE018091B4049091B50401969093B50462
S11305C08093B4049F012F5F3F4FA6E2B1E0EA9FFE
S11305D0C001EB9F900DFA9F900D11248A5A9A4FF7
S11305E05DDF02C080E090E0DF91CF911F910F9119
S11305F0FF90EF90DF90CF90BF90AF9008958091DF
S1130600020290910302409718F082E088B9FFCF6C
S113061020910202309103028BE2829FF001839FBA
S1130620F00D1124EC5FFD4F91E0908320910202C4
S113063030910302829FF001839FF00D1124EC5F3F
S1130640FD4F14A213A22091020230910302829F53
S1130650F001839FF00D1124EC5FFD4F16A215A24B
S11306602091020230910302829FF001839FF00DDA
S11306701124EC5FFD4F10A617A280910202909105
S11306800302019690930302809302020895AF92AD
S1130690BF92CF92DF92EF92FF920F931F93CF936B
S11306A0DF93E091BA04F091BB048281813019F4A4
S11306B083E088B9FFCFDF01A15FBE4FAD90BC904E
S11306C021E0A21AB1088BE28A9DD0018B9DB00D66
S11306D01124AC5FBD4F8C91811103C082E088B9B5
S11306E0FFCF823019F484E088B9FFCFDF01AF5E19
S11306F0BE4F2D913C919BE29A9DD0019B9DB00DE4
S11307001124AC5FBD4F9A963C932E9399978330F6
S113071009F03EC019C0C801FEDDEC01F70180817B
S11307209181FE01E35FFE4F91838083CE0185DEDC
S1130730E091BA04F091BB0482819A819817B8F4CD
S1130740CF017BDE0FDE13C08BE28A9D80018B9D7F
S1130750100D1124C8018C5F9D4F6C01F3E2CF0E84
S1130760D11C7C0129E2E20EF11C095F1D4FF60148
S1130770808191811816190674F28BE28A9DF0012A
S11307808B9DF00D1124EC5FFD4F81E0808312C03E
S11307908BE28A9DD0018B9DB00D1124AC5FBD4FBF
S11307A082E08C931296FC93EE931197E95FFE4FCF
S11307B083E08083DF91CF911F910F91FF90EF90A1
S11307C0DF90CF90BF90AF900895EF92FF920F9378
S11307D01F93CF93DF93C091BA04D091BB048A8155
S11307E0813019F483E088B9FFCFFE01E15FFE4F49
S11307F000811181015011098BE2809FF001819FDA
S1130800F00D1124EC5FFD4F8081811103C082E063
S113081088B9FFCF823091F52BE2209FC001219F40
S1130820900D11249C012C5F3D4F7901D9019996BB
S11308308D919C919A97FE01E35FFE4F9183808393
S113084011968D919C911297F8DD8A81D7011196AA
S1130850ED91FC9112979281981718F4CE01EDDD79
S113086081DD8BE2809FF001819FF00D1124EC5F0C
S1130870FD4F1282118281E0808313C08BE2809F3E
S11308807001819FF00C1124BE01C701895F9D4F47
S11308901BDDF701EC5FFD4F83E08083C95FDE4F12
S11308A08883DF91CF911F910F91FF90EF9008956E
S11308B0AF92BF92CF92DF92EF92FF920F931F936A
S11308C0CF93DF932091BA043091BB04F901E15F27
S11308D0FE4FA080B18081E0A81AB1088BE28A9D06
S11308E0F0018B9DF00D1124EC5FFD4F808181118F
S11308F003C082E088B9FFCF823019F484E088B95C
S1130900FFCF833009F049C0F901EF5EFE4F8081CB
S113091091812BE22A9DF0012B9DF00D1124EC5FB7
S1130920FD4F92A781A78BE28A9D80018B9D100DBC
S11309301124CF016F01E3E2CE0ED11C7C01F9E258
S1130940EF0EF11C095F1D4F18C0C801E4DCEC0177
S1130950F70180819181FE01E35FFE4F91838083E3
S1130960CE016BDDE091BA04F091BB0482819A81DF
S1130970981718F4CF0161DDF5DCF60180819181CF
S11309801816190614F38BE28A9DF0018B9DF00D65
S11309901124EC5FFD4F81E08083DF91CF911F91A3
S11309A00F91FF90EF90DF90CF90BF90AF9008959C
S11309B01092B5041092B4041092B7041092B604C5
S11309C01092B9041092B804E6E5F5E026EB37E19D
S11309D086E291E0DF01AC011D9241505040E1F705
S11309E0DF01A95FBE4F1C92EA5DFE4FE217F307D9
S11309F089F71092030210920202E4E0F2E024EB81
S1130A0034E08BE2DF01482F1D924A95E9F710820A
S1130A10BB96E217F307B1F70895AF92BF92DF9246
S1130A20EF92FF920F931F93CF93DF938091B604BD
S1130A309091B704892B09F09EC08091B4049091E1
S1130A40B504892B09F497C0F89481E090E0909361
S1130A50B7048093B60486DC6894DD24D2F8E09170
S1130A60BA04F091BB04DF01A65FBE4F1C928581DE
S1130A7096819093B7178093B61750DBC091BA0450
S1130A80D091BB048091B6179091B7179E838D8344
S1130A90FE01E65FFE4FE081F0E0E930F105F8F693
S1130AA08827EE58FF4F8F4FA8C2FE01EC5DFE4F22
S1130AB0E080F18032970081118132972081318169
S1130AC05E0181EEA81A8EEFB80AF5014081749791
S1130AD06081718133978081918140DDF50180814E
S1130AE0823008F0BCCFF50190818A81981708F014
S1130AF0B6CFCE01A2DC36DCB2CFCE019EDC32DC36
S1130B00AECFFE01E55EFE4F11821082C95FDE4F5B
S1130B10D88228DCA4CFC95FDE4F18828091B40448
S1130B209091B50401979093B5048093B4041ADCB2
S1130B3096CF65DDC35FDE4F9983888390CFA7DDB1
S1130B40E091BA04F091BB04E95FFE4F80818330E9
S1130B5009F085CF07DC83CF38DEE091BA04F09149
S1130B60BB04E95FFE4F8081833009F078CFFADB64
S1130B7076CF9EDE74CFDF91CF911F910F91FF90BE
S1130B80EF90DF90BF90AF900895EF92FF920F9394
S1130B901F932091B6043091B704232B09F1F894E4
S1130BA02091BA043091BB04F901E65FFE4F61E085
S1130BB06083329791838083339651834083749604
S1130BC082E08083319611821082329611821082E3
S1130BD032961182108280E180930B01F4DA08C00E
S1130BE0E12CF12C00E010E020E030E042E0B6DC43
S1130BF08091B4049091B5041F910F91FF90EF90F0
S1130C000895EF92FF920F931F932091B6043091B1
S1130C10B704232B09F1F8942091BA043091BB0452
S1130C20F901E65FFE4F41E0408332979183808370
S1130C30339671836083749682E080833196118247
S1130C40108232961182108232961182108280E1D3
S1130C5080930B01B8DA08C0E12CF12C00E010E01D
S1130C6020E030E042E07ADC8091B4049091B50455
S1130C701F910F91FF90EF900895EF92FF920F93C1
S1130C801F932091B6043091B704232B01F1F894FB
S1130C902091BA043091BB04F901E65FFE4F41E0B4
S1130CA040833297918380833396718360837496F3
S1130CB010823196118210823296118210823296FD
S1130CC01182108280E180930B017DDA08C0E12C4F
S1130CD0F12C00E010E020E030E040E03FDCE09167
S1130CE0BA04F091BB04808191811F910F91FF9010
S1130CF0EF900895EF92FF920F931F932091B60403
S1130D003091B704232B29F1F894E091BA04F091BF
S1130D10BB04DF01A65FBE4F21E02C93129711960E
S1130D209C938E93139611967C936E9383E08283A7
S1130D30189611961C921E92129611961C921E924F
S1130D40E95EFE4F1182108280E180930B013BDA51
S1130D5008C0E12CF12C00E010E020E030E043E09A
S1130D60FDDBE091BA04F091BB04808191811F9175
S1130D700F91FF90EF9008958091B6049091B7047D
S1130D80892B69F0F894E091BA04F091BB04E65F12
S1130D90FE4F82E0808380E180930B0114CA0895A2
S1130DA08091B6049091B704892B91F0E091BA0434
S1130DB0F091BB048281813011F0DECF0895F89464
S1130DC0E65FFE4F84E0808380E180930B01FBC9E2
S1130DD00895F89410929000E1E9F0E01082808187
S1130DE08860808380818260808380E29EE4909327
S1130DF0990080939800E1E7F0E08081826080832D
S1130E00109295001092940078940895AF92BF9236
S1130E10CF92DF92EF92FF920F931F93CF93DF93C2
S1130E208091BC049091BD0401969093BD0480937D
S1130E30BC0406E515E0CDE5D6E00F2EFDEBCF2E84
S1130E40F8E1DF2EF02DA12CB12C7801F80182817C
S1130E50813019F58881843071F18C899D890196DE
S1130E609D8B8C8B2E853F858217930758F086E0E7
S1130E7088B9FFCF2C853D85820F931F9B8B8A8B6E
S1130E80C701DBDAF7018281813039F4888181502E
S1130E90823018F4FFEFAF1ABF0A0A5D1E4FCA5D15
S1130EA0DE4FCC15DD0589F682E0A816B1046CF09E
S1130EB085E088B9FFCF8A899B892091BC04309151
S1130EC0BD048217930749F7D5CFDF91CF911F91C6
S1130ED00F91FF90EF90DF90CF90BF90AF90089567
S1130EE01F920F920FB60F9211240BB60F922F93ED
S1130EF03F934F935F936F937F938F939F93AF939E
S1130F00BF93EF93FF9382DF8091000290910102DF
S1130F1001969093010280930002E091BA04F0914B
S1130F20BB042281223060F0E55FFE4F20813181D5
S1130F30821793072CF034DF109201021092000202
S1130F40FF91EF91BF91AF919F918F917F916F919D
S1130F505F914F913F912F910F900BBE0F900FBE59
S1130F600F901F901895EAE0F1E0808184608083FF
S1130F708081886080838081806180838FEF87B9DE
S1130F80089516DDF0DF60E070E08FE491E0B2DEFA
S1130F9062E070E082EE97E070DE1BDF3EDD80E011
S1130FA090E0089580E090E063D9FCCF81E090E088
S1130FB05FD9FCCF82E090E05BD9FCCF83E090E086
S1130FC057D9FCCF41E050E060E070E082ED97E05B
S1130FD0DCDD44E050E060E070E086ED97E0D5DDD4
S1130FE040E150E060E070E08AED97E0CEDD60E043
S1130FF070E08EED97E005CE0895EE0FFF1F881F79
S11110008BBF0790F691E02D1994F894FFCF62
S9030000FC
